:020000040000FA
:020000002428B2
:100008007E1480312000101C0A280B281628210095
:10001800101C0F2810281628200010100130F0009E
:100028007008F3002000911C1A281B2822282100A0
:10003800911C1F2820282228200091107E100900DA
:100048002528F3017E10200029286230320099000B
:100058009B019D0104309F002000900191019201B5
:10006800930194012100900191019201930194015F
:100078008B0122009701F43021009D00E3309E009F
:100088009F0123008C010830220098009901043058
:1000980023009E009D0108309F000C309B009C01AE
:1000A800043021008C0022008C010C3024008C00CC
:1000B800103025008C0026008C013F3027008C0072
:1000C8003D009001910192010230940095010230A7
:1000D8003C00900020009701403098000C309600BA
:1000E80095010C309E0080302C0097000630980057
:1000F800803099002000911004309F009D01473006
:10010800320091008330920066309300633094008F
:10011800223095000730960098010230230097009E
:1001280001302100900091010B178B177308031DF4
:100138009E289F28A02863007308031DA428A528CB
:10014800A6289A28F301F20122008C16C830003242
:10015800890BAB2822008C121330F1002D30890B4B
:10016800B328F10BB328000022008C164230890B0B
:10017800BB28003222008C129E300032890BC12825
:1001880022008C164230890BC728003222008C12BC
:10019800FF3000320032890BCD28003200320000D7
:1001A80022008C164230890BD728003222008C128C
:1001B8002930F100E830890BDF28F10BDF282130E6
:1001C800890BE42800000130F1007108F2070230C1
:0E01D8007202031CF028F128A8289A28242877
:020000040001F9
:08000E00EC1F333FFC1FFF3F14
:00000001FF
